{
  "contractName": "testContract",
  "abi": [
    {
      "inputs": [
        {
          "name": "number",
          "type": "uint256"
        }
      ],
      "payable": false,
      "stateMutability": "nonpayable",
      "type": "constructor"
    },
    {
      "constant": true,
      "inputs": [],
      "name": "number",
      "outputs": [
        {
          "name": "",
          "type": "uint256"
        }
      ],
      "payable": false,
      "stateMutability": "view",
      "type": "function"
    },
    {
      "constant": false,
      "inputs": [
        {
          "name": "newNumber",
          "type": "uint256"
        }
      ],
      "name": "setNumber",
      "outputs": [],
      "payable": false,
      "stateMutability": "nonpayable",
      "type": "function"
    }
  ],
  "bytecode": "0x608060405234801561001057600080fd5b506040516020806101438339810180604052602081101561003057600080fd5b8101908080519060200190929190505050806000819055505060ec806100576000396000f3fe6080604052600436106049576000357c0100000000000000000000000000000000000000000000000000000000900463ffffffff1680633fb5c1cb14604e5780638381f58a146085575b600080fd5b348015605957600080fd5b50608360048036036020811015606e57600080fd5b810190808035906020019092919050505060ad565b005b348015609057600080fd5b50609760b7565b6040518082815260200191505060405180910390f35b8060008190555050565b6000805490509056fea165627a7a72305820e33847416a959cfad992a7b6c41eb757809b18370d772893d1d7d2a0b9bb763c0029",
  "source": "pragma solidity ^0.5.0;\n\ncontract testContract{\n    uint private _number;\n    constructor(uint number) public{\n        _number = number;\n    }\n//testContract.at(\"0xe7522f2A074ef5E8A907EfF5138A0575863d10A4\").number\n    function number() public view returns (uint){\n        return _number;\n    }\n\n    function setNumber(uint newNumber) public{\n        _number = newNumber;\n    }\n}",
  "sourcePath": "/home/igor/Documents/EthereumSolidityClasses/class13/contracts/testContract.sol",
  "compiler": {
    "name": "solc",
    "version": "0.5.0+commit.1d4f565a.Emscripten.clang"
  },
  "schemaVersion": "3.0.0",
  "updatedAt": "2019-01-12T19:50:27.966Z",
  "devdoc": {
    "methods": {}
  },
  "userdoc": {
    "methods": {}
  }
}